:040000003AEF00F0E3
:100008005782FACF03F0FBCF04F0F2AA0EEF00F00C
:1000180010EF00F01BEF00F0F2A415EF00F017EF5F
:1000280000F01BEF00F0DDEC13F034EF00F0F2AC61
:1000380020EF00F022EF00F034EF00F0B9A227EF34
:1000480000F029EF00F034EF00F0BAA22EEF00F034
:1000580030EF00F034EF00F048EC13F034EF00F02C
:1000680004C0FBFF03C0FAFF5792110067EF13F0BB
:1010000000002150800B2A6E215021242C6E20AE2E
:101010000CEF08F00EEF08F00FEF08F02C802C50CA
:10102000D8B415EF08F017EF08F02CEF08F02C28D3
:10103000D8A41DEF08F01FEF08F027EF08F0000E0E
:101040001E6E000E1F6E000E206E000E216E208E92
:10105000000E216E34EF08F0000E1E6E000E1F6EA3
:10106000000E206E000E216E2550800B2B6E2A5034
:101070002B18D8B43EEF08F040EF08F041EF08F02D
:101080002A8C255025242B6E24AE49EF08F04BEF17
:1010900008F04CEF08F02B802B50D8B452EF08F03A
:1010A00054EF08F069EF08F02B28D8A45AEF08F0A5
:1010B0005CEF08F064EF08F0000E226E000E236E65
:1010C000000E246E000E256E248E000E256E71EF2C
:1010D00008F0000E226E000E236E000E246E000E2D
:1010E000256E2C502B5CD8B078EF08F07AEF08F022
:1010F000A1EF08F02AAC7FEF08F081EF08F083EF52
:1011000008F0800E2A1A2CC02DF02BC02CF02DC018
:101110002BF01EC02DF022C01EF02DC022F01FC0EB
:101120002DF023C01FF02DC023F020C02DF024C0CF
:1011300020F02DC024F021C02DF025C021F02DC0BD
:1011400025F0000E2D6E2C502BC026F0276A265E4F
:10115000000E275A27BEB6EF08F0275009E11A0EF5
:10116000265CD8A0B6EF08F0B8EF08F0EFEF08F073
:101170001E501F1020102110D8A4C1EF08F0C4EF9A
:1011800008F0010EC5EF08F0000E2D6E000E1E6E69
:10119000000E1F6E000E206E000E216E2BC02CF074
:1011A000F8EF08F02DA0D7EF08F0D9EF08F0DFEF47
:1011B00008F0D8902D3001092D6EE1EF08F0D8909D
:1011C0002D321EA0E6EF08F0E8EF08F0E9EF08F096
:1011D0002D8E2134213220321F321E322C2A2B50E8
:1011E0002C5CD8A0F6EF08F0F8EF08F0D2EF08F08A
:1011F0002ABCFDEF08F0FFEF08F03FEF09F02C509C
:10120000D8A405EF09F007EF09F011EF09F0000E7F
:101210001E6E000E1F6E000E206E000E216E60EF1F
:101220000AF022501E2623501F222450202225502F
:10123000212221A01EEF09F020EF09F0CCEF09F0E8
:101240002DA025EF09F027EF09F02DEF09F0D89038
:101250002D3001092D6E2FEF09F0D8902D321EA0F0
:1012600034EF09F036EF09F037EF09F02D8E213415
:10127000213220321F321E322C2ACCEF09F02250AC
:101280001E5C23501F58245020582150800A266E7F
:101290002550800A2658D8B050EF09F052EF09F0D7
:1012A0007DEF09F01E50225C266E1F502358276EDA
:1012B00020502458286E21502558296EFF0E2624D0
:1012C0001E6EFF0E27201F6EFF0E2820206EFF0EC1
:1012D0002920216E800E2A1A2D6C2D50D8A473EF70
:1012E00009F075EF09F085EF09F0010E1E26000EDA
:1012F0001F222022212285EF09F022501E5E23505A
:101300001F5A2450205A2550215A1E501F102010B9
:101310002110D8A48EEF09F090EF09F0C5EF09F085
:101320002D50D8A496EF09F098EF09F0C5EF09F019
:10133000000E1E6E000E1F6E000E206E000E216E3F
:1013400060EF0AF0D8901E361F36203621362DAEBB
:10135000ACEF09F0AEEF09F0AFEF09F01E802DA061
:10136000B4EF09F0B6EF09F0BAEF09F0D8802D36E6
:10137000BCEF09F0D8902D362C50D8B4C2EF09F04C
:10138000C4EF09F0C5EF09F02C0620AECAEF09F052
:10139000CCEF09F0A2EF09F0000E2B6E2DAED3EFCB
:1013A00009F0D5EF09F0EDEF09F02DC026F07F0E22
:1013B0002616D8B4DEEF09F0E0EF09F0E4EF09F00B
:1013C000010E2B6EEDEF09F01EA0E9EF09F0EBEF37
:1013D00009F0EDEF09F0E0EF09F02B50D8B4F3EF8E
:1013E00009F0F5EF09F020EF0AF0010E1E26000EBD
:1013F0001F222022212221A000EF0AF002EF0AF092
:1014000020EF0AF01EC026F01FC027F020C028F0F1
:1014100021C029F02934293228322732263226C029
:101420001EF027C01FF028C020F029C021F02C2872
:10143000D8B41DEF0AF01FEF0AF020EF0AF02C2AB3
:101440002C28D8B426EF0AF028EF0AF030EF0AF083
:101450002C50D8A42EEF0AF030EF0AF042EF0AF039
:10146000000E1E6E000E1F6E000E206E000E216E0E
:101470002C50D8A43EEF0AF040EF0AF042EF0AF0F9
:10148000000E2A6E2CA047EF0AF049EF0AF04CEF4D
:101490000AF0208E4DEF0AF0209ED8902C30216E5D
:1014A0002AAE55EF0AF057EF0AF058EF0AF0218EF6
:1014B0001EC01EF01FC01FF020C020F021C021F070
:1014C00012000850800B116E08500824176E07AEEA
:1014D0006CEF0AF06EEF0AF06FEF0AF0178017500A
:1014E000D8B475EF0AF077EF0AF08AEF0AF0172800
:1014F000D8A47DEF0AF07FEF0AF087EF0AF0000E24
:10150000056E000E066E000E076E000E086E078E4A
:1015100092EF0AF0000E056E000E066E000E076ECA
:10152000000E086E0C50800B111A0C500C24126E19
:101530000BAE9DEF0AF09FEF0AF0A0EF0AF01280C9
:101540001250D8B4A6EF0AF0A8EF0AF0BBEF0AF0E9
:101550001228D8A4AEEF0AF0B0EF0AF0B8EF0AF004
:10156000000E096E000E0A6E000E0B6E000E0C6E61
:101570000B8EC3EF0AF0000E096E000E0A6E000E0D
:101580000B6E000E0C6E1250D8B4C9EF0AF0CBEF00
:101590000AF0D3EF0AF01750D8A4D1EF0AF0D3EF36
:1015A0000AF0DDEF0AF0000E056E000E066E000E6A
:1015B000076E000E086E75EF0CF00B500502F3CFAE
:1015C0001CF0F4CF1DF01C50136E146A156A166AD5
:1015D0001D50186E196A1A6A1B6A0A500602F3CF68
:1015E0001CF0F4CF1DF01C501326000E14221522FF
:1015F00016221D501826000E19221A221B220950ED
:101600000702F3CF1CF0F4CF1DF01C501326000E80
:101610001422152216221D501826000E19221A22F5
:101620001B2215C016F014C015F013C014F0136A75
:1016300009500602F3CF1CF0F4CF1DF01C50132606
:101640001D501422000E1522000E16220A5005020B
:10165000F3CF1CF0F4CF1DF01C5013261D501422A4
:10166000000E1522000E162215C016F014C015F03B
:1016700013C014F0136A09500502F3CF1CF0F4CF25
:101680001DF01C5013261D501422000E1522000EB2
:1016900016220B500602F3CF1CF0F4CF1DF01C50A5
:1016A00018261D501922000E1A22000E1B220A5065
:1016B0000702F3CF1CF0F4CF1DF01C5018261D506C
:1016C0001922000E1A22000E1B220B500702F3CF24
:1016D0001CF0F4CF1DF01C500D6E1D500E6E0F6AE5
:1016E000106A0FC010F00EC00FF00DC00EF00D6AA2
:1016F0000D5018260E5019220F501A2210501B227E
:1017000013C00DF014C00EF015C00FF016C010F08D
:10171000190E90EF0BF0D89010320F320E320D32BE
:10172000E82E8BEF0BF00D5018260E5019220F509B
:101730001A2210501B2215C016F014C015F013C049
:1017400014F0136A125017C00DF00E6A0D26000E29
:101750000E22820E0D241C6EFF0E0E201D6EC6EF93
:101760000BF0D890183619361A361B3616AEBBEF6A
:101770000BF0BDEF0BF0BEEF0BF01880D8901336D6
:101780001436153616361C06D8A01D061AAECBEF39
:101790000BF0CDEF0BF0B1EF0BF0000E126E16AEAA
:1017A000D4EF0BF0D6EF0BF0FAEF0BF0FF0E1314A3
:1017B0000D6EFF0E14140E6EFF0E15140F6E7F0EBD
:1017C0001614106E0D500E100F101010D8B4EBEF51
:1017D0000BF0EDEF0BF0F1EF0BF0010E126EFAEFE4
:1017E0000BF018A0F6EF0BF0F8EF0BF0FAEF0BF0A0
:1017F000EDEF0BF01250D8B400EF0CF002EF0CF04C
:1018000026EF0CF0010E1826000E19221A221B22B8
:101810001BA00DEF0CF00FEF0CF026EF0CF018C032
:101820000DF019C00EF01AC00FF01BC010F01034EC
:1018300010320F320E320D320DC018F00EC019F0FA
:101840000FC01AF010C01BF01C4A1D2A1DBE31EF3C
:101850000CF01D5008E11C28D8A031EF0CF033EF3C
:101860000CF03DEF0CF0000E186E000E196E800E9D
:101870001A6E7F0E1B6E6BEF0CF01DBE4AEF0CF064
:101880001D5006E11C04D8B048EF0CF04AEF0CF0F4
:1018900056EF0CF0000E186E000E196E000E1A6E48
:1018A000000E1B6E000E116E6BEF0CF01CC017F0DB
:1018B000FF0E1816FF0E19167F0E1A16000E1B16B5
:1018C00017A065EF0CF067EF0CF068EF0CF01A8EC4
:1018D000D89017301B6E11501B1218C005F019C09C
:1018E00006F01AC007F01BC008F0120005C026F071
:1018F00006C027F007C028F008C029F0000E261403
:10190000096E000E27140A6E800E28140B6E7F0ECF
:1019100029140C6E800E0B1809E17F0E0C180910AB
:101920000A10D8A496EF0CF098EF0CF0C8EF0CF06A
:10193000FF0E2614096EFF0E27140A6E7F0E281460
:101940000B6E000E29140C6E09500A100B100C10AF
:10195000D8A4ADEF0CF0AFEF0CF0B6EF0CF029BE51
:10196000B6EF0CF0B4EF0CF0BEEF0CF0FF0E261249
:10197000FF0E27127F0E2812000E291226C005F036
:1019800027C006F028C007F029C008F063EF0EF06A
:1019900029BED7EF0CF029502810271006E12604A5
:1019A000D8B0D5EF0CF0D7EF0CF00DEF0DF0FF0E27
:1019B0002614096EFF0E27140A6EFF0E28140B6EF4
:1019C0007F0E29140C6E09500A100B100C10D8A4AD
:1019D000ECEF0CF0EEEF0CF0F8EF0CF0000E056EF3
:1019E000000E066E000E076E000E086E63EF0EF01E
:1019F00029BEFFEF0CF0FDEF0CF00DEF0DF0000E27
:101A0000436E210E426EFF0E266EFF0E276EFF0EF6
:101A1000286E7F0E296EBEEF0CF0170E096E26C0E1
:101A20000AF027C00BF028C00CF029C00DF00966A1
:101A30001CEF0DF024EF0DF00D340D320C320B3293
:101A40000A32092E17EF0DF00AC01EF00BC01FF06E
:101A50000CC020F00DC021F01E501F1020102110CE
:101A6000D8A435EF0DF037EF0DF067EF0DF0000E55
:101A7000126E000E136E000E146E000E156E4CEFFB
:101A80000DF0D8902636273628362936010E122634
:101A9000000E13221422152228AE51EF0DF053EF41
:101AA0000DF041EF0DF0FF0E1224096EFF0E132012
:101AB0000A6EFF0E14200B6EFF0E15200C6E0950DF
:101AC0001E5E0A501F5A0B50205A0C50215A810E8C
:101AD0001E26FF0E1F22FF0E2022FF0E2122FF0EC8
:101AE0002614096EFF0E27140A6E7F0E28140B6E43
:101AF000000E29140C6E000E0910266E000E0A103E
:101B0000276E800E0B10286E000E0C10296E1EA082
:101B10008CEF0DF08EEF0DF096EF0DF0265026268F
:101B200027502722285028222950292221342132C7
:101B300020321F321E3226502626275027222850B8
:101B4000282229502922000E0E6E000E0F6E000E64
:101B5000106E000E116E0EC016F00FC017F010C000
:101B600018F011C019F0000E226E000E236E000E48
:101B7000246E010E256E05EF0EF00E5022241A6E13
:101B80000F5023201B6E105024201C6E1150252056
:101B90001D6E1A50265C1B5027581C50285829507F
:101BA000800A096E1D50800A0958D8A0DAEF0DF09E
:101BB000DCEF0DF0F8EF0DF01A5022240E6E1B50E2
:101BC00023200F6E1C502420106E1D502520116EF6
:101BD0001A50265E1B50275A1C50285A1D50295A4D
:101BE000225016262350172224501822255019223D
:101BF00026502626275027222850282229502922DD
:101C0000D89025322432233222322250231024103D
:101C10002510D8A40EEF0EF010EF0EF0BDEF0DF072
:101C20002650271028102910D8B419EF0EF01BEFFA
:101C30000EF02FEF0EF0010E1614096E000E1714A1
:101C40000A6E000E18140B6E000E19140C6E09505B
:101C500016260A5017220B5018220C50192216C0B3
:101C600009F017C00AF018C00BF019C00CF00C34C2
:101C70000C320B320A320932000E0924266E000E95
:101C80000A20276E000E0B20286E3F0E0C20296EB6
:101C90001EC009F01FC00AF020C00BF021C00CF0DC
:101CA000170ED89009360A360B360C36E82E51EF4F
:101CB0000EF0095026260A5027220B5028220C50DD
:101CC0002922BEEF0CF012000850800B156E085050
:101CD00008241C6E07AE6FEF0EF071EF0EF072EF7E
:101CE0000EF01C801C50D8B478EF0EF07AEF0EF096
:101CF0008FEF0EF01C28D8A480EF0EF082EF0EF0CC
:101D00008AEF0EF0000E056E000E066E000E076ED6
:101D1000000E086E078E000E086E97EF0EF0000E94
:101D2000056E000E066E000E076E000E086E0C505B
:101D3000800B151A0C500C241D6E0BAEA2EF0EF08A
:101D4000A4EF0EF0A5EF0EF01D801D50D8B4ABEF40
:101D50000EF0ADEF0EF0C2EF0EF01D28D8A4B3EFD9
:101D60000EF0B5EF0EF0BDEF0EF0000E096E000E96
:101D70000A6E000E0B6E000E0C6E0B8E000E0C6EBB
:101D8000CAEF0EF0000E096E000E0A6E000E0B6E0A
:101D9000000E0C6E09500A100B100C10D8A4D3EFD3
:101DA0000EF0D5EF0EF0EDEF0EF0000E056E000E0A
:101DB000066E000E076E000E086E800E07127F0E74
:101DC00008121550081205C005F006C006F007C03D
:101DD00007F008C008F030EF10F01C50D8A4F3EF63
:101DE0000EF0F5EF0EF0FFEF0EF0000E056E000E98
:101DF000066E000E076E000E086E30EF10F01D50DC
:101E00001CC00DF00E6A0D5E000E0E5A7F0E0D24E2
:101E1000166E000E0E20176E05C011F006C012F0EF
:101E200007C013F008C014F0000E056E000E066E19
:101E3000000E076E000E086E000E186E000E196E72
:101E4000000E1A6E000E1B6E000E1D6E60EF0FF07E
:101E50001D50D8B42EEF0FF030EF0FF047EF0FF01A
:101E6000D8901136123613361436D8900536063609
:101E7000073608361BAE3FEF0FF041EF0FF042EF91
:101E80000FF00580D890183619361A361B360950CF
:101E9000115C0A5012580B5013580C501458D8A00B
:101EA00054EF0FF056EF0FF05FEF0FF01B8C09505F
:101EB000115E0A50125A0B50135A0C50145A1D2A14
:101EC000190E1D6466EF0FF068EF0FF028EF0FF0AA
:101ED0001150121013101410D8B471EF0FF073EFEB
:101EE0000FF08BEF0FF018808BEF0FF0D8900536C6
:101EF0000636073608361BAE80EF0FF082EF0FF084
:101F000083EF0FF00580D890183619361A361B3635
:101F10001606D8A0170607AE90EF0FF092EF0FF05D
:101F200076EF0FF0000E1D6E1BAE99EF0FF09BEFDA
:101F30000FF0BFEF0FF0FF0E18140D6EFF0E191407
:101F40000E6EFF0E1A140F6E7F0E1B14106E0D50C6
:101F50000E100F101010D8B4B0EF0FF0B2EF0FF05A
:101F6000B6EF0FF0010E1D6EBFEF0FF005A0BBEF37
:101F70000FF0BDEF0FF0BFEF0FF0B2EF0FF01D50FD
:101F8000D8B4C5EF0FF0C7EF0FF0EBEF0FF0010E75
:101F90000526000E06220722082208A0D2EF0FF025
:101FA000D4EF0FF0EBEF0FF005C00DF006C00EF010
:101FB00007C00FF008C010F0103410320F320E328C
:101FC0000D320DC005F00EC006F00FC007F010C0B6
:101FD00008F0164A172A17BEF6EF0FF0175008E15F
:101FE0001628D8A0F6EF0FF0F8EF0FF003EF10F07F
:101FF000000E176E1668000E056E000E066E000EBF
:10200000076E000E086E17BE10EF10F0175006E1B5
:102010001604D8B00EEF10F010EF10F01EEF10F015
:10202000000E176E000E166E000E056E000E066E88
:10203000000E076E000E086E000E156E16C01CF026
:102040001CA025EF10F027EF10F02AEF10F0078EFC
:102050002BEF10F0079ED8901C30086EE1EF0EF0C9
:102060001200126E1250D8B438EF10F03AEF10F0A0
:102070005CEF10F00DBE41EF10F03FEF10F05CEFA1
:1020800010F00AC00EF00BC00FF00CC010F00DC025
:1020900011F00E1E0F1E101E111E0E2A000E0F2212
:1020A000102211220EC014F00FC015F010C016F04F
:1020B00011C017F064EF10F00AC014F00BC015F057
:1020C0000CC016F00DC017F00A500B100C100D10BC
:1020D000D8A46DEF10F06FEF10F079EF10F0000E54
:1020E0000A6E000E0B6E000E0C6E000E0D6E0AEFE7
:1020F00011F0960E136E83EF10F0132AD89017325A
:10210000163215321432000E14140E6E000E151411
:102110000F6E000E1614106EFE0E1714116E0E5078
:102120000F1010101110D8A498EF10F09AEF10F0C3
:102130007DEF10F0A8EF10F0132A010E1426000E08
:10214000152216221722D890173216321532143261
:10215000000E14140E6E000E15140F6E000E1614E1
:10216000106EFF0E1714116E0E500F10101011107C
:10217000D8A4BDEF10F0BFEF10F09CEF10F0C7EF48
:1021800010F01306D890143615361636173616BECC
:10219000CCEF10F0CEEF10F0D6EF10F0020E13607F
:1021A000D4EF10F0D6EF10F0C1EF10F013B0DBEF6A
:1021B00010F0DDEF10F0DEEF10F0169ED890133225
:1021C00013C00EF00F6A106A116A0EC011F0106A87
:1021D0000F6A0E6A0E5014120F501512105016127C
:1021E000115017121250D8B4F8EF10F0FAEF10F0A7
:1021F00002EF11F00DBE01EF11F0FFEF10F002EF52
:1022000011F0178E14C00AF015C00BF016C00CF0B8
:1022100017C00DF01200000E3A6E000E3B6E000E5D
:102220003C6E000E3D6E000E3E6E070E086E080EF0
:10223000076E3E50545C326E000E5558336E080ED9
:102240003224056E070E3320066EA1EC12F0D890F2
:1022500005360636710E0524D96E000E0620DA6E9C
:10226000DECF34F0DDCF35F02E50345E2F50355AAE
:1022700034C00AF035C00BF00C6A0D6A000E31EC68
:1022800010F00AC036F00BC037F00CC038F00DC0AB
:1022900039F03AC01EF03BC01FF03CC020F03DC0FA
:1022A00021F036C009F037C00AF038C00BF039C051
:1022B0000CF036C005F037C006F038C007F039C062
:1022C00008F061EC0AF005C022F006C023F007C058
:1022D00024F008C025F001EC08F01EC03AF01FC041
:1022E0003BF020C03CF021C03DF03E2A7F0E3E6412
:1022F0007CEF11F07EEF11F015EF11F03AC005F010
:102300003BC006F03CC007F03DC008F0000E096E6F
:10231000000E0A6E000E0B6E430E0C6E64EC0EF097
:1023200005C03AF006C03BF007C03CF008C03DF0E5
:102330003AC005F03BC006F03CC007F03DC008F0D5
:1023400076EC0CF005C02EF006C02FF007C030F080
:1023500008C031F0120025EC14F0F28EF28C000E61
:10236000A3EC13F005C06DF006C06EF0D3EC12F0D4
:1023700002EC12F00AC06FF00BC070F06FC02EF0CC
:1023800070C02FF00BEC11F02EC069F02FC06AF076
:1023900030C06BF031C06CF069C01EF06AC01FF035
:1023A0006BC020F06CC021F0FAEC13F0DD0E0001E0
:1023B0006F5D050E7059D8A0E0EF11F0E2EF11F05B
:1023C000E6EF11F0140E4A6EE8EF11F00A0E4A6EB5
:1023D000030E3FEC14F000016D513FEC14F00001CE
:1023E0006E513FEC14F000016F513FEC14F000010E
:1023F00070513FEC14F0FC0E3FEC14F0AFEF11F015
:102400003AEF00F0000E106E000E116E000E126E0C
:10241000000E136E000E146E1450545C0C6E000E01
:1024200055580D6E080E0C24056E070E0D20066E15
:10243000070E086E080E076EA1EC12F0D890053654
:102440000636710E0524D96E000E0620DA6EDECF38
:102450000EF0DDCF0FF00E5010260F501122000E9F
:102460001222000E1322142A7F0E14643AEF12F087
:102470003CEF12F00CEF12F010C00CF011C00DF098
:1024800012C00EF013C00FF0080E4CEF12F0D890EF
:102490000F320E320D320C32E82E47EF12F00CC024
:1024A0000AF00DC00BF012004D2A87EF12F08A805F
:1024B0004C2A4A504C5CD8A060EF12F062EF12F048
:1024C000A0EF12F0020E4B6E000E4C6EA0EF12F059
:1024D0008A9056504D5CD8A070EF12F072EF12F057
:1024E000A0EF12F0000E4B6E000E4D6EA0EF12F03A
:1024F00056504D5CD8A07FEF12F081EF12F0A0EFA4
:1025000012F0010E4B6E000E4D6EA0EF12F04B500C
:10251000016E026A0250000AD8B491EF12F0A0EFE7
:1025200012F00150000AD8B478EF12F0010AD8B4C2
:1025300057EF12F0030AD8B468EF12F0A0EF12F0D0
:10254000120007500810D8B4A8EF12F0AAEF12F04A
:10255000CEEF12F0010E096EB2EF12F0D8900736EE
:102560000836092A08AEB7EF12F0B9EF12F0AEEF55
:1025700012F00750055C08500658D8A0C2EF12F0C0
:10258000C4EF12F0C8EF12F00750055E0850065A6B
:10259000D89008320732092EB9EF12F005C005F0C5
:1025A00006C006F01200000EA3EC13F005C00AF0FE
:1025B00006C00BF0D8905434D96E5534DA6E710ED3
:1025C000D926000EDA220AC0DEFF0BC0DDFF010EA5
:1025D0005424056E000E5520066E070E086E080E78
:1025E000076EA1EC12F005C054F006C055F049503A
:1025F000D8B4FDEF12F0FFEF12F0F7EF12F0000E7B
:10260000496E1200480E656E900EAB6E240EAC6ED5
:10261000400EAF6E030ED46E000E056E000E066EF9
:10262000000E076E69EC14F0000E056E000E066ECB
:10263000000E076E62EC14F0000E056E000E066EC2
:10264000000E076E70EC14F0000E486E1200000EC3
:102650008D6E000E8C6E000E896E000E8E6E000E5A
:102660008A6E000E8F6E000E8B6E000E906E966856
:10267000FE0E976E92681F0E986EFE0E936E99680E
:10268000BF0E946E95680F012569246923691200B5
:10269000BA9246C001F047C002F011EC14F051505C
:1026A00052105310D8B457EF13F059EF13F066EFF0
:1026B00013F002D866EF13F00500FA6E5150FD6E6C
:1026C0005250FE6E5350FF6EFA5012001200F80E78
:1026D000F66E280EF76E000EF86E0900F5CF56F074
:1026E00000EE71F01EEE10F0EE6AE550E150FCE1F4
:1026F000E250FAE100EE3FF00F0EEE6AE806FDE16F
:10270000579057920001ABEF11F0000E7A6EF90E60
:102710007D6EC00E7C6EBA927C507DCF08F0096A47
:1027200008C009F0086A0810466E0950476EB98261
:10273000A80E056E240E066E000E076E54EC14F003
:10274000010E7B6E1200096E09C007F007460746AE
:10275000C2500718830B0718C26EC280C282C2B271
:10276000B4EF13F0B6EF13F0AFEF13F0C450086EF0
:10277000076AC3500724056E000E0820066E12007B
:10278000D59CE00ED76EBF0ED66ED650D7CF08F0D0
:10279000096A08C009F0086A0810446E0950456EBD
:1027A000F294F28AEE0E056E280E066E000E076E8B
:1027B0005BEC14F09F0ED56E1200F2944550D76E6C
:1027C00044C0D6FF4E504F105010D8B4EAEF13F06B
:1027D000ECEF13F0F9EF13F002D8F9EF13F0050066
:1027E000FA6E4E50FD6E4F50FE6E5050FF6EFA5016
:1027F000120012001EC005F01FC006F020C007F036
:1028000021C008F0000E096E000E0A6E800E0B6EDD
:102810003F0E0C6E61EC0AF0050E1F6EDC0E1E6E94
:1028200012007BA416EF14F018EF14F020EF14F050
:102830007B9002507D6E01C07CFF7B8024EF14F002
:1028400002507D6E01C07CFF12007AEC14F027EC80
:1028500013F04AEC14F085EC13F0C0EC13F034ECF8
:1028600014F002EC13F01200010EC26E800EC16E65
:10287000BE0EC06E000EC46E000EC36E1200056E5A
:102880009EA845EF14F047EF14F040EF14F005C098
:10289000ADFF1200600ED36E000E646E000E9B6ED4
:1028A000000E0F012A6F120005C051F006C052F051
:1028B00007C053F0120005C04EF006C04FF007C02D
:1028C00050F0120005C063F006C064F007C065F068
:1028D000120005C066F006C067F007C068F012007D
:1028E00005C060F006C061F007C062F01200010E82
:0928F000496E1200D09E1200C8CE
:020000040030CA
:0E00000015127F7CF98B91FFFFC0FFE0FF40DF
:00000001FF
